:10000000FFFFFFFFFFFFFFFFFFFFFFFFFFFFFFFF00
:10001000FFFFFFFFFFFFFFFFFFFFFFFFFFFFFFFFF0
:10002000FFFFFFFFFFFFFFFFFFFFFFFFFFFFFFFFE0
:10003000FFFFFFFFFFFFFFFFFFFFFFFFFFFFFFFFD0
:1004000046434642000000000000000001030300D4
:1004100001000000010200000200000000000000D6
:1004200000000000000000000000000000000000CC
:1004300000000000000000000000000000000000BC
:1004400000000000010405000000000000000000A2
:100450000000000400000000000000000000000098
:10046000000000000000000000000000000000008C
:10047000000000000000000000000000000000007C
:10048000EC04200AF01E04320426000000000000E4
:10049000050404240000000000000000000000002B
:1004A00031040120000000000000000000000000F6
:1004B0000604000000000000000000000000000032
:1004C000000000000000000000000000000000002C
:1004D00021042008000000000000000000000000CF
:1004E000000000000000000000000000000000000C
:1004F00000000000000000000000000000000000FC
:10050000DC042008000000000000000000000000E3
:100510003404200800220000000000000000000059
:1005200000000000000000000000000000000000CB
:10053000C7040000000000000000000000000000F0
:1005400000000000000000000000000000000000AB
:10055000000000000000000000000000000000009B
:10056000000000000000000000000000000000008B
:10057000000000000000000000000000000000007B
:10058000000000000000000000000000000000006B
:10059000000000000000000000000000000000005B
:1005A000000000000000000000000000000000004B
:1005B000000000000000000000000000000000003B
:1005C000000100000010000000000000000000001A
:1005D000000001000000000000000000000000001A
:1005E000000000000000000000000000000000000B
:1005F00000000000000000000000000000000000FB
:10060000FFFFFFFF000000000000000000000000EE
:1006100000000000000000000000000000000000DA
:1006200000000000000000000000000000000000CA
:1006300000000000000000000000000000000000BA
:1006400000000000000000000000000000000000AA
:1010000000301220FD120008951300089913000803
:101010009113000891130008911300089113000820
:1010200090D50E000000000000000000A924002060
:1010300091130008001000084D240020E921002031
:10104000A9130008AD130008B1130008B513000878
:10105000B9130008BD130008C1130008C513000828
:10106000C9130008CD130008D1130008D5130008D8
:10107000D9130008DD130008E1130008E513000888
:10108000E9130008ED130008F1130008F513000838
:10109000F9130008FD1300080114000805140008E6
:1010A000091400080D140008111400081514000894
:1010B000191400081D140008211400082514000844
:1010C000712900082D140008311400083514000897
:1010D000391400083D1400084114000845140008A4
:1010E000491400084D140008511400085514000854
:1010F000591400085D140008611400086514000804
:10110000691400086D1400087114000875140008B3
:10111000791400087D140008811400088514000863
:10112000891400088D140008911400089514000813
:10113000991400089D140008A1140008A5140008C3
:10114000A9140008AD140008B1140008B514000873
:10115000B9140008BD140008C1140008C514000823
:10116000C9140008CD140008D1140008D5140008D3
:10117000D9140008DD140008E1140008E514000883
:10118000E9140008ED140008F1140008F514000833
:10119000F9140008FD1400080115000805150008E1
:1011A000091500080D15000811150008151500088F
:1011B000191500081D15000821150008251500083F
:1011C000291500082D1500083115000835150008EF
:1011D00039150008B929000841150008451500080F
:1011E000491500084D15000851150008551500084F
:1011F000591500085D1500086115000865150008FF
:10120000691500086D1500087115000875150008AE
:10121000791500087D15000881150008851500085E
:10122000891500088D15000891150008951500080E
:10123000991500089D150008A1150008A5150008BE
:10124000A9150008000000000000000000000000D8
:10125000000000000000000000000000000000008E
:10126000000000000000000000000000000000007E
:10127000000000000000000000000000000000006E
:10128000A3F5803A704700BF174B002B08BF134BE4
:101290009D46FFF7F5FF00218B460F461348144A81
:1012A000121A3BF00BFE0E4B002B00D098470D4B53
:1012B000002B00D098470020002104000D000D48AD
:1012C000002802D00C48AFF300803BF05DFE200008
:1012D000290001F005FA3BF0D7FB00BF0000080031
:1012E00000000000000000000030122020E4002078
:1012F000ECE80520000000000000000072B617486E
:10130000174901600A6882F30888164880F30A8842
:10131000154880471549164A164B9A42BEBF51F8E8
:10132000040B42F8040BF8E71349144A00209142D9
:10133000BCBF41F8040BFAE700201149114A914261
:10134000BCBF41F8040BFAE706490F4A9142BCBF03
:1013500041F8040BFAE762B60C48804708ED00E05C
:1013600000100008002C12205956000888010E08B1
:101370000000002008E4002020E40020ECE8052024
:10138000F0E80520F0EC052000301220891200085A
:10139000FFF7FEBF8548004785480047854800475E
:1013A00085480047854800478548004785480047ED
:1013B00085480047854800478548004785480047DD
:1013C00085480047854800478548004785480047CD
:1013D00085480047854800478548004785480047BD
:1013E00085480047854800478548004785480047AD
:1013F000854800478548004785480047854800479D
:10140000854800478548004785480047854800478C
:10141000854800478548004785480047854800477C
:10142000854800478548004785480047854800476C
:10143000854800478548004785480047854800475C
:10144000854800478548004785480047854800474C
:10145000854800478548004785480047854800473C
:10146000854800478548004785480047854800472C
:10147000854800478548004785480047854800471C
:10148000854800478548004785480047854800470C
:1014900085480047854800478548004785480047FC
:1014A00085480047854800478548004785480047EC
:1014B00085480047854800478548004785480047DC
:1014C00085480047854800478548004785480047CC
:1014D00085480047854800478548004785480047BC
:1014E00085480047854800478548004785480047AC
:1014F000854800478548004785480047854800479C
:10150000854800478548004785480047854800478B
:10151000854800478548004785480047854800477B
:10152000854800478548004785480047854800476B
:10153000854800478548004785480047854800475B
:10154000854800478548004785480047854800474B
:10155000854800478548004785480047854800473B
:10156000854800478548004785480047854800472B
:10157000854800478548004785480047854800471B
:10158000854800478548004785480047854800470B
:1015900085480047854800478548004785480047FB
:1015A000854800478548004785480047951300084F
:1015B00099130008A92400204D240020E9210020CF
:1015C000911300089113000891130008911300086B
:1015D000911300089113000891130008911300085B
:1015E000911300089113000891130008911300084B
:1015F00091130008911300089D6F0008E96F00081F
:1016000035700008817000089113000891130008DC
:10161000CD70000891130008911300089113000881
:10162000911300089113000891130008911300080A
:1016300091130008911300089113000891130008FA
:1016400091130008911300089113000891130008EA
:1016500091130008911300089113000891130008DA
:101660009113000891130008ED83000891130008FE
:1016700091130008911300089113000891130008BA
:1016800091130008911300089113000891130008AA
:10169000911300089113000891130008911300089A
:1016A000911300089113000891130008911300088A
:1016B0009113000891130008C587000891130008D2
:1016C0001DC2002091130008911300089113000817
:1016D000911300089113000891130008911300085A
:1016E000C1530008911300089113000891130008DA
:1016F000911300089113000891130008911300083A
:101700009113000891130008911300089113000829
:101710009113000891130008911300089113000819
:101720009113000891130008F95300089113000861
:1017300091130008911300089113000891130008F9
:1017400091130008911300089113000891130008E9
:1017500091130008911300089113000891130008D9
:1017600091130008911300089113000891130008C9
:1017700091130008911300089113000891130008B9
:1017800091130008911300089113000891130008A9
:101790009113000891130008911300089113000899
:1017A0009113000891130008911300089113000889
:1017B0009113000891130008911300089113000879
:1017C0000584000881F0004102E000BF83F000437F
:1017D00030B54FEA41044FEA430594EA050F08BFCC
:1017E00090EA020F1FBF54EA000C55EA020C7FEA90
:1017F000645C7FEA655C00F0E2804FEA5454D4EB0D
:101800005555B8BF6D420CDD2C4480EA020281EAD6
:10181000030382EA000083EA010180EA020281EA0E
:101820000303362D88BF30BD11F0004F4FEA013160
:101830004FF4801C4CEA113102D0404261EB41016F
:1018400013F0004F4FEA03334CEA133302D05242F5
:1018500063EB430394EA050F00F0A780A4F10104B1
:10186000D5F1200E0DDB02FA0EFC22FA05F28018EB
:1018700041F1000103FA0EF2801843FA05F35941D1
:101880000EE0A5F120050EF1200E012A03FA0EFC50
:1018900028BF4CF0020C43FA05F3C01851EBE3717A
:1018A00001F0004507D54FF0000EDCF1000C7EEB97
:1018B00000006EEB0101B1F5801F1BD3B1F5001FD5
:1018C0000CD349085FEA30004FEA3C0C04F10104F4
:1018D0004FEA445212F5800F80F09A80BCF1004F1D
:1018E00008BF5FEA500C50F1000041EB045141EA9F
:1018F000050130BD5FEA4C0C404141EB0101013C68
:1019000028BFB1F5801FE9D291F0000F04BF014656
:101910000020B1FA81F308BF2033A3F10B03B3F128
:1019200020020CDA0C3208DD02F1140CC2F10C02B8
:1019300001FA0CF021FA02F10CE002F11402D8BF16
:10194000C2F1200C01FA02F120FA0CFCDCBF41EAE2
:101950000C019040E41AA2BF01EB0451294330BDB1
:101960006FEA04041F3C1CDA0C340EDC04F114048E
:10197000C4F1200220FA04F001FA02F340EA030065
:1019800021FA04F345EA030130BDC4F10C04C4F1AB
:10199000200220FA02F001FA04F340EA030029468B
:1019A00030BD21FA04F0294630BD94F0000F83F4D5
:1019B000801306BF81F480110134013D4EE77FEAB8
:1019C000645C18BF7FEA655C29D094EA050F08BF04
:1019D00090EA020F05D054EA000C04BF19461046E5
:1019E00030BD91EA030F1EBF0021002030BD5FEA29
:1019F000545C05D14000494128BF41F0004130BD51
:101A000014F580043CBF01F5801130BD01F00045A4
:101A100045F0FE4141F470014FF0000030BD7FEA17
:101A2000645C1ABF194610467FEA655C1CBF0B4612
:101A3000024650EA013406BF52EA033591EA030F29
:101A400041F4002130BD00BF90F0000F04BF002121
:101A5000704730B54FF4806404F132044FF0000554
:101A60004FF0000150E700BF90F0000F04BF0021CD
:101A7000704730B54FF4806404F1320410F0004533
:101A800048BF40424FF000013EE700BF42004FEA2E
:101A9000E2014FEA31014FEA02701FBF12F07F43AB
:101AA00093F07F4F81F06051704732F07F4208BF62
:101AB000704793F07F4F04BF41F40021704730B569
:101AC0004FF4607401F0004521F000411CE700BFB5
:101AD00050EA010208BF704730B54FF000050AE038
:101AE00050EA010208BF704730B511F0004502D539
:101AF000404261EB41014FF4806404F132045FEA3B
:101B0000915C3FF4D8AE4FF003025FEADC0C18BFE3
:101B100003325FEADC0C18BF033202EBDC02C2F1D5
:101B2000200300FA03FC20FA02F001FA03FE40EA67
:101B30000E0021FA02F11444BDE600BF70B54FF06B
:101B4000FF0C4CF4E06C1CEA11541DBF1CEA135549
:101B500094EA0C0F95EA0C0F00F0DEF82C4481EAB1
:101B6000030621EA4C5123EA4C5350EA013518BFD1
:101B700052EA033541F4801143F4801338D0A0FBBE
:101B800002CE4FF00005E1FB02E506F00042E0FB6B
:101B900003E54FF00006E1FB03569CF0000F18BF71
:101BA0004EF0010EA4F1FF04B6F5007F64F5407419
:101BB00004D25FEA4E0E6D4146EB060642EAC621AC
:101BC00041EA55514FEAC52040EA5E504FEACE2E19
:101BD000B4F1FD0C88BFBCF5E06F1ED8BEF1004F1C
:101BE00008BF5FEA500E50F1000041EB045170BD98
:101BF00006F0004646EA010140EA020081EA0301DC
:101C0000B4EB5C04C2BFD4EB0C0541EA045170BDD7
:101C100041F480114FF0000E013C00F3AB8014F151
:101C2000360FDEBF002001F0004170BDC4F100049A
:101C3000203C35DA0C341BDC04F11404C4F120051B
:101C400000FA05F320FA04F001FA05F240EA020076
:101C500001F0004221F0004110EBD37021FA04F6AC
:101C600042EB06015EEA430E08BF20EAD37070BD66
:101C7000C4F10C04C4F1200500FA04F320FA05F0C5
:101C800001FA04F240EA020001F0004110EBD370C7
:101C900041F100015EEA430E08BF20EAD37070BD37
:101CA000C4F1200500FA05F24EEA020E20FA04F310
:101CB00001FA05F243EA020321FA04F001F00041BF
:101CC00021FA04F220EA020000EBD3705EEA430E30
:101CD00008BF20EAD37070BD94F0000F0FD101F05F
:101CE0000046400041EB010111F4801F08BF013C98
:101CF000F7D041EA060195F0000F18BF704703F0D6
:101D00000046520043EB030313F4801F08BF013D5C
:101D1000F7D043EA0603704794EA0C0F0CEA135518
:101D200018BF95EA0C0F0CD050EA410618BF52EAD2
:101D30004306D1D181EA030101F000414FF00000D8
:101D400070BD50EA410606BF1046194652EA4306E6
:101D500019D094EA0C0F02D150EA013613D195EA5A
:101D60000C0F05D152EA03361CBF104619460AD1A2
:101D700081EA030101F0004141F0FE4141F47001AC
:101D80004FF0000070BD41F0FE4141F4780170BD9C
:101D900070B54FF0FF0C4CF4E06C1CEA11541DBF01
:101DA0001CEA135594EA0C0F95EA0C0F00F0A7F803
:101DB000A4EB050481EA030E52EA03354FEA013130
:101DC00000F088804FEA03334FF0805545EA131343
:101DD00043EA12634FEA022245EA111545EA10650B
:101DE0004FEA00260EF000419D4208BF964244F1A2
:101DF000FD0404F5407402D25B084FEA3202B61AC1
:101E000065EB03055B084FEA32024FF480104FF494
:101E1000002CB6EB020E75EB030E22BFB61A754608
:101E200040EA0C005B084FEA3202B6EB020E75EB9B
:101E3000030E22BFB61A754640EA5C005B084FEA03
:101E40003202B6EB020E75EB030E22BFB61A7546D0
:101E500040EA9C005B084FEA3202B6EB020E75EBDB
:101E6000030E22BFB61A754640EADC0055EA060E9C
:101E700018D04FEA051545EA16754FEA06164FEADF
:101E8000C30343EA52734FEAC2025FEA1C1CC0D18B
:101E900011F4801F0BD141EA00014FF000004FF018
:101EA000004CB6E711F4801F04BF01430020B4F1D9
:101EB000FD0C88BFBCF5E06F3FF6AFAEB5EB030C91
:101EC00004BFB6EB020C5FEA500C50F1000041EB8E
:101ED000045170BD0EF0004E4EEA113114EB5C045B
:101EE000C2BFD4EB0C0541EA045170BD41F480112E
:101EF0004FF0000E013C90E645EA060E8DE60CEA36
:101F0000135594EA0C0F08BF95EA0C0F3FF43BAF52
:101F100094EA0C0F0AD150EA01347FF434AF95EA09
:101F20000C0F7FF425AF104619462CE795EA0C0FED
:101F300006D152EA03353FF4FDAE1046194622E7BA
:101F400050EA410618BF52EA43067FF4C5AE50EA94
:101F500041047FF40DAF52EA43057FF4EBAE12E784
:101F60004FF0FF3C06E000BF4FF0010C02E000BF65
:101F70004FF0010C4DF804CD4FEA410C7FEA6C5C48
:101F80004FEA430C18BF7FEA6C5C1BD001B050EAEB
:101F9000410C0CBF52EA430C91EA030F02BF90EAD6
:101FA000020F0020704710F1000F91EA030F58BF95
:101FB000994208BF90422CBFD8176FEAE37040F0F7
:101FC000010070474FEA410C7FEA6C5C02D150EA95
:101FD000013C07D14FEA430C7FEA6C5CD6D152EA50
:101FE000033CD3D05DF8040B704700BF8446104615
:101FF00062468C461946634600E000BF01B5FFF714
:10200000B7FF002848BF10F1000F01BD4DF808EDE3
:10201000FFF7F4FF0CBF012000205DF808FB00BFB4
:102020004DF808EDFFF7EAFF34BF012000205DF80E
:1020300008FB00BF4DF808EDFFF7E0FF94BF01205B
:1020400000205DF808FB00BF4DF808EDFFF7CEFF5C
:1020500094BF012000205DF808FB00BF4DF808ED9B
:10206000FFF7C4FF34BF012000205DF808FB00BF6C
:102070004FEA410212F5001215D211D56FF47873B0
:10208000B3EB625212D94FEAC12343F0004343EA53
:10209000505311F0004F23FA02F018BF404270472E
:1020A0004FF00000704750EA013005D111F00040B8
:1020B00008BF6FF0004070474FF00000704700BF4E
:1020C0004A0011D212F5001211D20DD56FF47873B7
:1020D000B3EB62520ED44FEAC12343F0004343EA0C
:1020E000505323FA02F070474FF00000704750EA57
:1020F000013002D14FF0FF3070474FF000007047C1
:102100007BB972B90029BEBF00204FF0004106E044
:1021100008BF00281CBF6FF000414FF0FF3000F0F7
:1021200057B8ADF1080C6DE904CE002909DB002B8E
:102130001ADB3AF025FBDDF804E0DDE9022304B008
:102140007047404261EB4101002B1BDB3AF018FB6A
:10215000DDF804E0DDE9022304B0404261EB410117
:10216000524263EB43037047524263EB43033AF03E
:1021700007FBDDF804E0DDE9022304B0404261EB37
:1021800041017047524263EB43033AF0F9FADDF83C
:1021900004E0DDE9022304B0524263EB43037047DD
:1021A00053B94AB9002908BF00281CBF4FF0FF31BE
:1021B0004FF0FF3000F00CB8ADF1080C6DE904CE23
:1021C0003AF0DEFADDF804E0DDE9022304B07047FE
:1021D000704700BF10F8012B11F8013B012A28BFFE
:1021E0009A42F7D0D01A7047034613F8012B002A01
:1021F000FBD1181A013870474FEA410C7FEA6C5C3A
:1022000002D150EA013C0AD14FEA430C7FEA6C5CF0
:1022100002D152EA033C02D14FF0000070474FF068
:10222000010070470348044B834202D0034B03B1C3
:102230001847704708E4002008E400200000000070
:10224000064B0749C91A891048BF0131491003D00C
:10225000044B0BB101481847704700BF08E4002049
:1022600008E400200000000010B5064C237843B9B4
:10227000FFF7D8FF044B13B10448AFF300800123EC
:10228000237010BD20E400200000000018FB0D08A2
:1022900008B5054B1BB105490548AFF30080BDE803
:1022A0000840FFF7CDBF00BF0000000024E400207D
:1022B00018FB0D081FB54379029303790193C37886
:1022C0000093837842780178024839F04DFE05B0DA
:1022D0005DF804FB4FEB0308014839F045BE00BF31
:1022E000F65F04082DE9F0410446A4B00D46212212
:1022F000002105A83AF0E2FD242C00F23881DFE845
:1023000014F070006E00B900BB003601BD00CF00B4
:10231000D100D500D7003601D30025006C00310173
:10232000310130003000D900F60003011001360100
:10233000360123013601300030003000300030001B
:10234000300030003000300030003000894839F073
:102350000BFEFFF7C1FF1EF019F830B1864839F0C7
:1023600003FE002024B0BDE8F08127F001FA08B197
:102370008248F4E7824839F0F7FDFFF7ADFF1FF020
:1023800075FC0028F4D17F4839F0EEFDFFF7A4FF7B
:1023900000F030FD0028EBD17B4839F0E5FDFFF778
:1023A0009BFF1DF02BFA08B17848D8E71DF062FFBB
:1023B00008B17748D3E71CF087FF044608B1754899
:1023C000CDE7754839F0D0FDFFF786FF214620465E
:1023D0001CF034FAFFF780FFC3E77048BFE770488E
:1023E000BDE7704839F0C0FD0EA818F02DFB08B10C
:1023F0006D48B4E71F9B6846009310F005F901464D
:1024000001A83AF0E7FD05A817F03EFD054608B122
:102410006648A4E7664839F0A7FD664805A939F083
:10242000A3FD1F9B1BB1644801A939F09DFDDFF896
:1024300004820EAC637CDB0610D5204616F046F80D
:102440000646204610F06CFF0746607C16F014F834
:102450003A4603463146404639F086FD0135032DA4
:1024600004F11404E6D1554839F07EFD0022544BA6
:102470001A6076E7534872E7534870E7504C534868
:1024800039F072FD23680133022B23607FF769AFB7
:102490004F4839F069FD17F025FE0023236060E7FF
:1024A0004C485CE74C485AE74C48DDE74C4856E757
:1024B0004C4854E74C4839F057FD05A817F042FD49
:1024C00008B14A484BE7FFF707FF05A9484839F02C
:1024D0004BFDFFF701FF16F069F915F097F810B101
:1024E000444839F041FD444839F03EFD72E7434825
:1024F00039F03AFDFFF7F0FE414839F035FD284646
:10250000FFF7D8FE3F48EFE73F4839F02DFDFFF7D2
:10251000E3FE3B4839F028FD2846FFF7CBFE3B4859
:10252000E2E7FFF7D9FE3A4839F01EFD394839F0A5
:102530001BFD281DFFF7BEFE374839F015FD296841
:10254000364839F011FD45E7354839F00DFDFFF704
:10255000C3FE344839F008FDFFF7BEFE15F084F8DD
:102560003148C1E72146314839F0FEFCF9E6214601
:102570002F48F9E76EEB030889EB0308B0EB03087B
:10258000DAEB0308D1EB0308F6EB030818EC0308B9
:1025900038EC030859EC030880EC030892EC0308BC
:1025A000B8EC0308E1EC030806ED030821ED03088D
:1025B00045ED030863ED030871ED030808E0040826
:1025C0003CE40020A5ED0308C4ED0308E6ED030894
:1025D00014EE030840EE03085EEE030887EE0308DE
:1025E0009EEE0308B8EE0308D7EE0308F3EE0308E7
:1025F00013EF030837EF030857EF03087AEF0308D8
:10260000A2EF0308ADEF0308C7EF0308EEEF0308DE
:1026100007F003082FF003083FF003084A77040887
:1026200050F003086CF003088BF00308AEF00308C9
:10263000D0F0030886ED030808B50C4B19680C4B65
:10264000186817F0F7F830B140F24B11094B0A4AFD
:102650000A4839F0B5FB0A4817F096F920B140F264
:102660004F11044B044AF3E708BD00BF0879050881
:102670001C0A0020F2F0030812720508FEF003089D
:10268000E522000808B5114839F06EFCFFF724FE7A
:102690001CF0FCFB30B14FF4BD710D4B0D4A0E48E0
:1026A00039F08EFB00F0B2FB0C4839F05DFCFFF70F
:1026B00013FEFFF7C1FF20B14FF4C571044B054A6B
:1026C000EDE741F28830DDF037FAFAE729F1030847
:1026D0003AF1030808720508FEF003084FF10308F9
:1026E00008B5DDF0B1FB00F0FBFB06F029FBFFF7BE
:1026F000F3FD074839F038FCFFF7EEFD00220549ED
:102700000548DDF0C1FADDF017FB002008BD00BF71
:1027100068F103082472050840E4002010B5094C54
:102720000948236823F08003236000236360A360CB
:1027300001F0F2F9236823F00C0343F00403236053
:1027400010BD00BF000003404CE4002038B50B4C26
:10275000A568A3689D42FBD1094B0A4AC01841F104
:1027600000010023FFF71CFD05446560064801F0E9
:102770009DF9236843F08003236038BD00000340C7
:102780003F420F0040420F004CE4002008B500F02B
:10279000A5FB154B03F06843B3F1006F0DD000F0BB
:1027A0008FFD00F0CDFB114806F0ACF91CF054FB96
:1027B000BDE808400E4805F087BE00F083FD40F2FA
:1027C000111003F0B1F80A2003F0AEF84FF4807056
:1027D00003F0AAF840F2111006F0EEFC4FF48070FE
:1027E00006F0EAFCDDE700BF412F0008E809002001
:1027F0000000034008B50D4B1B68012B12D138B9FE
:10280000032903D11CF034FB39F072FB002008BD12
:102810000128FBD10329F9D1FFF7B8FF0022044BAF
:102820001A70F3E743F62060F1E700BF7816042042
:10283000801604200122124B13B5C3F88420BFF385
:102840004F8FBFF36F8F0F4C202006F043F82020EE
:1028500006F0B4F8204605F037FE23680A4A43F034
:10286000100323602368094923F00C0343F0040399
:10287000236000230648009301F094F802B010BDD5
:1028800000E100E0000003401D2700084D2700087C
:1028900078E4002070B50D4D0D4C1422002128461F
:1028A0003AF00CFB1422002120463AF007FB2846A0
:1028B00001230022482101F0BFF800232046BDE893
:1028C00070401A46202101F0B7B800BF60E4002034
:1028D0004CE4002008B50F4800F022FFFFF7AAFFE4
:1028E00060220D4B0D4983F82023002083F86523D7
:1028F00001F086F80A49022001F082F8FFF7CAFFCA
:10290000012000F05BFF074827F064F90022064B26
:102910001A6008BD78E4002000E100E0B80A002059
:10292000D8090020C12C0008FCF2042010B50B4887
:1029300006F0E8F80A4B0B48D3F80C4404F07F0487
:10294000214639F011FB084B1C61FFF7C3FF6022E1
:10295000064B002083F8652310BD00BFE809002066
:1029600000B0034082F103080010034000E100E0E2
:102970000E4A08B513685B0716D5136823F00C03DD
:1029800043F0040313600122094BC3F88420BFF312
:102990004F8FBFF36F8F202005F09CFF202006F0A3
:1029A0000DF80222034B1A6008BD00BF000003406F
:1029B00000E100E0FCF204200C4A08B5536943F042
:1029C0000203536120220A4BC3F88C21C3F88C20E8
:1029D000BFF34F8FBFF36F8F652005F07BFF65203E
:1029E00005F0ECFF0422034B1A6008BD0010034001
:1029F00000E100E0FCF204200B4B0C4A19699162E3
:102A0000596911629968A2F56822C2F86015D968FF
:102A1000C2F864151968A2F50032C2F830145B6878
:102A2000C2F8343402F098BD38E500200090104020
:102A3000044B1B7A032B04D10122034B1A701CF0A8
:102A40001DBA704778E4002080160420184A10B59B
:102A50005369044623F0020353612022154BC3F847
:102A60008C21DA60652005F035FF652005F01EFE3B
:102A7000482005F02FFF482005F018FE21460E489B
:102A800039F072FA022C11D100240A220B4B1120CA
:102A9000DC60C3F8102E05F01DFF112005F006FEC6
:102AA000234622462146064806F07CF8002010BD49
:102AB0000010034000E100E0A0F103080090104086
:102AC0000100002038B50446EFF3108572B61C4AA9
:102AD000536943F00203536120221A4BC3F88C213F
:102AE000C3F88C20BFF34F8FBFF36F8F652005F0C5
:102AF000F1FE652005F062FF85F31088482005F09F
:102B0000E9FE022C16D1112005F06EFE10B108224C
:102B10000D4B1A60112005F0DDFE112005F04EFF6F
:102B20000023194618461A4606F03CF800210220F8
:102B3000FFF762FFBDE83840044839F015BA00BF1E
:102B40000010034000E100E0FCF20420BCF10308A7
:102B50000A4B1B68013B072B0FD8DFE803F0040783
:102B60000E0A0E0E0E0C0020DDF0AEB8044839F04F
:102B7000FBB90448FBE70448F9E77047FCF204207E
:102B8000D2F10308E4F10308F7F1030830B5274D4B
:102B900004462B7887B033B9254839F0E5F94FF072
:102BA000FF3007B030BD1422002101A83AF086F9A9
:102BB000012C0ADD4FF4C01200230421CDE90123CA
:102BC0004FF48072CDE9031205932046FFF73EFFD4
:102BD000032C03D11CF04CF939F08AF9204601A9E5
:102BE000DDF056FA032C01D1FFF7D0FD16F0AEFB55
:102BF00090B92046FFF766FF012C14D10D4839F03B
:102C0000B3F90D4839F0B0F900240C4B1C60DDF02D
:102C1000C3F920462C70C4E70021022016F038FCCE
:102C20000028E6D0BBE7FFF793FFEDE7741604201A
:102C30000BF2030831F2030842F20308FCF204200D
:102C4000012810B513DC154839F08EF9144839F015
:102C50008BF9144839F088F9134839F085F913488D
:102C600039F082F91248BDE8104039F07DB9486862
:102C700039F006FF431E032B044604D90D4839F0F2
:102C800073F90D48EFE7042802D10C4839F06CF9CC
:102C90002046BDE81040FFF779BF00BF80F203086F
:102CA000A5F20308AEF20308CEF20308ECF2030823
:102CB000F7F203080CF3030825F303084BF30308AA
:102CC0007FB5474B1B68002B5BD0464B1B78002B16
:102CD00057D0DCF065FF002853D1434AD2F81431B5
:102CE00003F00F03012B05D0D2F8143103F00F03CA
:102CF000022B49D140F217134FF4806140F21510B6
:102D0000CDE9033140F21313CDE9013040F2111344
:102D100040F20D120093072140F20F13032000F040
:102D20002FFF324BD3E9000100F082FDFFF710FFC7
:102D300000222F4B1A60DDF02FF92B4AD2F8143104
:102D400003F00F03012B05D0D2F8143103F00F0369
:102D5000022B2FD140F217134FF4806040F2151C64
:102D6000CDE9033040F21313CDE9013C40F21113D9
:102D700040F20D120093072140F20F13032000F0E0
:102D8000A3FF07B05DF804FB40F216234FF4806EFA
:102D90004FF40572CDE9033E40F21223CDE9013232
:102DA0004FF404734FF403720093072140F20E2393
:102DB0000220B4E740F216234FF480624FF405710D
:102DC000CDE9033240F21223CDE901314FF404730F
:102DD0004FF403720093072140F20E230220CEE746
:102DE0008416042078E400200010004550E50020FF
:102DF000FCF2042008B504481BF0FAFF003818BFA5
:102E00000120404208BD00BFEC09002008B5FFF7D3
:102E10008DFD28B1034839F0A7F84FF0FF3008BD09
:102E20000120FCE7DCF303084FF040231A6B22F08B
:102E3000A0621A635A6B5A631A6922F4F7721A6114
:102E40001A6A22F040421A625A6A22F040025A621A
:102E50009A6A22F040029A62DA6A22F01012DA626A
:102E60001A6942F400721A611A4AD2F83815C2F887
:102E70003815D2F83C15C2F83C151749D1F8380579
:102E800040F0A060C1F83805186920F0ED00186125
:102E9000186A20F480301862586A20F08000586266
:102EA000986A20F080009862186B40F000701863F8
:102EB000586B5863D2F83835C2F83835D2F83C35FB
:102EC000C2F83C35D1F8383543F00073C1F83835D5
:102ED000704700BF0010004500080045FFF7A4BF81
:102EE00008B5FFF7FBFF154B03F06843B3F1006F24
:102EF0000DD000F0E5F900F023F81C2006F05CF995
:102F0000002005F0EBFDBDE8084000F085B800F0BA
:102F1000D9F940F2111002F007FD0A2002F004FD79
:102F20004FF4807002F000FD40F2111006F044F9F9
:102F30004FF4807006F040F9DDE700BF412F000834
:102F400007B50B4B1868019001A802F0C7FE4CF2C0
:102F5000685002F09DFD032002F002FF01220346AB
:102F60004FF4E131032038F077FF03B05DF804FB44
:102F70005CE8030808B5104BD3F890309A0601D5E9
:102F8000002008BD02220D4BC3F8A82700F080FAEC
:102F900046F63C139942F3D1094B9842F0D10120F7
:102FA00000F062FA43F2B9439942E9D1054BC31AE2
:102FB00058425841E5E700BF003000400010004093
:102FC000072E5505032E5505012100F01F039940DA
:102FD000A0F11603052B11D91F280A4A0A480B4BEA
:102FE00098BF1346A2F1080298BF02461068084332
:102FF00010601A6822EA01021A607047044B054A01
:10300000F4E700BF981000458C1000459C10004567
:10301000980800458C08004510B50024204601346E
:10302000FFF7D2FF162CF9D11C2420460134FFF7FC
:10303000CBFF402CF9D10D4B1A6B22F0011242F05C
:1030400001021A631A6B22F0021242F002021A63A2
:103050001A6B22F0041242F004021A631A6B22F077
:10306000081242F008021A6310BD00BF00100045AC
:1030700010B58CB005F08CFA1C22002105A839F09F
:103080001DFF3E4B02A8D3F8144105F0D9FA0028E1
:1030900059D101A805F0EAFA30B14FF4EC71384B80
:1030A000384A394838F08CFEE4B2022C08BFBDF82B
:1030B0000A00019905F080FE952005A905F096FA11
:1030C0000028EAD1962006A905F090FA0028E4D15C
:1030D000972007A905F08AFA0028DED1022C14BF38
:1030E00098209B2008A905F081FA0028D5D19920C5
:1030F00009A905F07BFA0028CFD19A200AA905F08A
:1031000075FA0028C9D1019A204805A905F08EFF5B
:1031100005F052FA1E4B03F06843B3F1006F25D05F
:10312000102005F0FDFF1B48DCF0D2FD47F22060C7
:1031300002F0AEFC102002F055FC10200CB0BDE8EF
:10314000104005F0A7BF02F007FA0622124B4FF419
:10315000167083F85A20114A03F17B4303F53C3380
:103160005A640F4B196803F023F8D1E704220621B3
:1031700008480CB0BDE81040DCF0BEBE00100045B1
:1031800009F403084472050823F40308752F0008A6
:10319000412F000800401340002000455460226089
:1031A000180A0020054B03F06843B3F1006F04D107
:1031B000022203481146DCF09FBE7047412F0008F1
:1031C0000040134008B5DCF043FF314B9B6A9A077F
:1031D00002D4304802F0A8FB2F4BD3F890309B0567
:1031E00002D52E4802F0A0FB012002F0D9FE2C48A7
:1031F00002F09AFB2B4802F097FBFFF739FF2A48B1
:1032000002F046FC01214FF4806002F083FC0221B1
:10321000264802F0FBFD4FF4803002F085FB0120D0
:1032200002F082FE224802F07FFB224802F084FF77
:10323000712002F02DFC4FF4EC6002F029FC01211A
:1032400048F2402002F066FC0D2148F2FC6002F0DA
:1032500061FC01214FF4107002F05CFC01214FF47D
:10326000127002F057FC012140F2647002F052FC2F
:1032700005214FF4F06002F04DFC42F2344002F0C0
:1032800007FCFFF78FFF0C4B0C4A1A6008BD00BF0C
:103290000010034020000100003000400900010040
:1032A000040001000500010030043404006CF7B98B
:1032B0000300010054720508180A002000497F0F1E
:1032C000FFF780BF08B5DCF0C3FE2A4B9B6A9A0764
:1032D00002D4294802F028FB284BD3F890309B05F4
:1032E00002D5274802F020FB012002F059FE2548B4
:1032F00002F01AFBFFF7BCFE234802F0C9FB0121D4
:103300004FF4806002F006FC0221204802F07EFDAE
:103310004FF4803002F008FB712002F0B9FB4FF44B
:10332000EC6002F0B5FB0D2148F2FC6002F0F2FB0C
:1033300001214FF4107002F0EDFB01214FF41270E7
:1033400002F0E8FB012140F2647002F0E3FB05218A
:103350004FF4F06002F0DEFB42F2344002F098FBE2
:1033600002F0CAFE02F0C4FDFFF71CFF084B094A39
:103370001A6008BD0010034020000100003000402A
:10338000090001000500010030043404006CF7B9A5
:10339000180A002000497F0F0122074B1A651A689E
:1033A0005207FCD402A1D1E900017047AFF30080BD
:1033B000032E55050F7100000070004038B5204BFA
:1033C0001A6854071BD5DA6CD10629D4DA6C1207B7
:1033D00028D4DA6C950727D4DA6C540726D4DA6C33
:1033E000D10725D4DA6C920624D4DB6C154D13F486
:1033F000807F154B18BF1D4645F2520406E01C683D
:10340000124DC4F3800404F5A0445234012813D1B2
:10341000FFF7C2FFA4F59A440B3C2144284638BD6F
:103420000B4DE9E70B4DE7E70B4DE5E70B4DE3E708
:103430000B4DE1E70B4DDFE704F510510431EDE7EB
:1034400000700040F0F0550578535505032E5505E2
:1034500030535505705355053853550534535505AC
:103460003C5355057453550510B5074B1A68D207E0
:10347000FCD41C68FFF7A2FF04F00103A3F57E5300
:103480001D3B194410BD00BF00700040000000004B
:103490000D4B1A6812F0010202BF18629A6040F2E6
:1034A000F31207BF04A1D1E9000105A1D1E9000190
:1034B00008BF5A60704700BF072E55053C690000E1
:1034C000B05355053C690000007000400023C0E97E
:1034D0000033C0E90231704737B50023044601A824
:1034E00001930D46DCF060FBD4E902231BB93AB12D
:1034F00063681D6005E09342F9D143F27A7407E0F6
:103500002560002301326C602B606560A2601C4660
:10351000BFF34F8F0198DCF077FB204603B030BD3E
:1035200013B50023044601A80193DCF03DFB63685A
:10353000FBB1186802461AB18442116802D11960C1
:10354000002203E0A14212D121681160216801B973
:103550005A609A68013A9A60002363601C46BFF380
:103560004F8F0198DCF050FB204602B010BD0A4698
:10357000E1E743F27C74F2E780687047002210B5FF
:10358000094B86B0CDE9022301AB04930123074C1C
:103590000593204602A904F0C6FE10B9019BDB0783
:1035A000F7D406B010BD00BF00020C01004013406C
:1035B00030B5D7B0EFF3108472B606A804F0A8FBBC
:1035C000012340F201122A4806A98DF818308DF81F
:1035D0001A308DF86430ADF8622004F0C7FC002288
:1035E0002449234804F02AFCF02200211AA839F0CB
:1035F00065FCF02220491AA8DCF0DAFB3C2300210C
:103600001B481AAA04F07EFD00234CF24072CDE95B
:1036100001234FF08173164802A901AD039304F012
:1036200082FE78B9154B0290CDE90335022310488C
:1036300002A9059304F077FE20B9FFF79FFF0C481D
:1036400004F084FC0E4BD3F8002842F00542C3F886
:103650000028D3F80028002AFBDBD3F8002822F04A
:10366000A062C3F8002804B962B6002057B030BD8C
:1036700000401340F80900205872050800030101BA
:1036800000300340FFF794BF30B541EA02039B07C7
:1036900085B01AD1EFF3108572B60D4B0090CDE9CD
:1036A00001310C486946039204F03DFE044610B90E
:1036B000FFF764FF0446074804F048FC05B962B60A
:1036C000BFF36F8F204605B030BD0424FAE700BF7A
:1036D0000002000100401340084B1A68002302F169
:1036E000440111F8010F30B90133052BF9D104233E
:1036F00082F844307047DBB2FAE700BF78E500207B
:10370000EFF3108272B6014B1A60704774E5002027
:10371000024B1B6883F31088704700BF74E50020DC
:1037200038B5044628B9E2211D4B1E4A1E4838F020
:1037300047FBC022002139F0C1FB4FF48073002504
:1037400023801A4B29466360194BC4E92155C4F8FC
:10375000B830184BC4E92355C4F8BC3004F14C0010
:10376000FFF7B4FE294604F15C00FFF7AFFE2946DF
:1037700004F16C00FFF7AAFE294604F1A800FFF748
:10378000A5FE63680C4D1B6C2C6003B198472B6839
:103790005B689B6C03B19847BDE83840FFF79CBF5E
:1037A00011F503085275050820F50308B8750508DA
:1037B000013700081137000878E5002070B5174D73
:1037C00004462B6833B94FF48E71154B154A1648D1
:1037D00038F0F6FAD3F8B83003B198472A6892F96E
:1037E000013094B1002B04DC40F225110F4B0D4A3F
:1037F000EDE7013BDBB253700BB901231370D2F834
:10380000BC304BB1BDE87040184701335BB2002BB0
:103810005370C8BF1470F2E770BD00BF78E5002098
:1038200069F503083C75050820F503087CF50308D5
:103830002DE9F7435A4C07462068884603783BB188
:103840000C220021436893F83C5002FB053315B964
:1038500003B0BDE8F08357EA080205F1FF3555D102
:10386000C26853F8086C164056D190F844C0AC4575
:1038700052D353F8043C1030134004220DEB0201E4
:103880000193DCF095FA2368EDB21D7223684FEACC
:10389000061909F14C0083F87C601844FFF76CFEB0
:1038A00000283BD10136032EF0D10223266886F88A
:1038B0007C300023C6F88030D6F88C3013B198479E
:1038C000C6E926012368D3F8842052B157EA0801DB
:1038D00007D059680C236B43C858381A68F10001A7
:1038E0009047216828464B6801F134025B6C103127
:1038F00098472368D3F8883003B198472668D6F8EC
:103900008C30C3B19847C6E9280114E053F80C2C59
:10391000BA4271EB0802A3D30C3B98E723684B44EF
:10392000D3F84C902946D9E9023200209847A8B133
:103930002368C3F880902368D3F88020A2B193F95C
:103940007C301F463A06236810D55B689B6C002BC1
:103950003FF47EAF03B0BDE8F0431847D9F80090BC
:10396000B9F1000FDED19DE70223EAE73E0106F13F
:103970004C001844FFF700FE08B9013FE2E7236856
:103980003344DE6CD6E90232294601209847236889
:10399000D3F880309E42F0D03668002EF2D1ECE7AA
:1039A00078E500202DE9F047DDF820900F46164617
:1039B0001D46044630B940F2A7110D4B0D4A0E4882
:1039C00038F0FEF9DFF83480D8F80030D3F8B8309A
:1039D00003B19847D8F80030C4E92176D3F8BC3059
:1039E000C4E9235913B1BDE8F0471847BDE8F08793
:1039F00011F503082175050820F5030878E5002076
:103A000008B531B94FF4EB71074B084A084838F054
:103A1000D7F9084B00011B684C301844FFF75CFDD8
:103A2000003818BF012008BD99F503080F75050877
:103A300020F5030878E500202DE9F0418846174677
:103A40001D46044630B940F22121144B144A154852
:103A500038F0B6F9144E3368D3F8B83003B198474C
:103A6000227CC4E9028765F3000222F0020222747C
:103A700025B130682146A830FFF72EFD336829466E
:103A80005B682046DB6C98473368D3F8BC3013B1D1
:103A9000BDE8F0411847BDE8F08100BFAFF503086D
:103AA000FB74050820F5030878E5002038B50446C6
:103AB00030B940F24221144B144A154838F080F9CD
:103AC000144D2B68D3F8B83003B19847237CDB073B
:103AD0000FD428682146A830FFF7FEFC2B6801218F
:103AE0005B682046DB6C984758B9237C43F00103A0
:103AF000237400242B68D3F8BC3003B198472046C8
:103B000038BD43F61D64F5E7AFF50308E574050815
:103B100020F5030878E5002038B5044630B94FF4A5
:103B20001C71134B134A144838F04AF9134D2B6893
:103B3000D3F8B83003B19847237CDB070DD5204676
:103B4000FFF7EEFC2B6800215B682046DB6C984792
:103B500058B9237C60F30003237400242B68D3F846
:103B6000BC3003B19847204638BD43F61E64F5E7E4
:103B7000AFF50308CE74050820F5030878E50020AA
:103B80000EB42DE9F343484E04463368099DD3F83B
:103B9000B83003B19847FF2C366809D0042C1BD8E5
:103BA000344494F84530013384F84530FFF794FDF0
:103BB0004FF0000835B100244FF0010C0AA8019025
:103BC000AC420CDBD6F8BC3003B19847404602B09B
:103BD000BDE8F04303B070474FF00108EAE750F842
:103BE000243013F0E00F4FEA132106D040F22531C4
:103BF0002E4B2F4A2F4838F0E3F881B3DAB202296E
:103C000006EB02072DD0042906D001293AD040F254
:103C10004231294B264AEDE797F814E04FEA9E1906
:103C2000B9F1030F04D140F22D31244B204AE1E7D2
:103C300009F1010969F3871E87F814E0D20803F03F
:103C4000070706EB8202BF00B940576B03F01F0362
:103C50000F435763F2680CFA03F31A43F26001341E
:103C6000AEE797F814E0CEF3C209B9F1070F04D11B
:103C70004FF44D71124B0E4ABCE709F1010969F38B
:103C8000C50ED9E797F814E00EF00709B9F1070F50
:103C900004D140F23B310B4B054AABE709F1010976
:103CA00069F3020EC8E700BF78E50020BAF5030803
:103CB000BC74050820F5030831F70308E4F5030890
:103CC0004FF60308C0F603080EB42DE9F34F4C4D30
:103CD00004462B680B9FD3F8B83003B19847FF2CEC
:103CE0002E680AD0042C1DD8344494F8453013B102
:103CF000013B84F84530FFF7EFFC4FF000093FB17E
:103D00004FF0000C4FF0010A0CA80190BC450CDBF1
:103D1000D6F8BC3003B19847484602B0BDE8F04F32
:103D200003B070474FF00109E9E750F82C20C2F3C7
:103D3000C40E06EB8E0E02F00705DEF83480130A7F
:103D4000AD0003FA05F518EA050FD1B230D0022B09
:103D500006EB01042FD0042B06D0012B3ED040F2FD
:103D6000B531284B284A07E0237D5FEA931B06D133
:103D700040F29E31254B244A254838F021F80BF1BA
:103D8000030B6BF38713237503F0C00383B928EA91
:103D90000505CEF83450237D53B9490906EB81015E
:103DA000CB6802F01F020AFA02F223EA0203CB6098
:103DB0000CF1010CAAE7237D13F0380FC3F3C20BFB
:103DC00004D140F2A531134B0F4AD5E70BF1070B95
:103DD0006BF3C503237503F03803D7E7237D13F096
:103DE000070B04D140F2AD310B4B074AC4E70BF18E
:103DF000070B6BF30203237503F00703C6E700BF4D
:103E000078E5002031F70308A674050837F70308A2
:103E100020F503087FF70308C8F703087047000080
:103E2000F0B50E4687B0054614460021142201A8BD
:103E300039F044F82EB9E4215C4B5D4A5D4837F017
:103E4000BFFF1CB9E5215C4B594AF7E72DB1012DA5
:103E500005D12846DBF0D0FE30BF07B0F0BD336897
:103E60002068DF074ABF80F004000120C0F3800013
:103E700004F034FE01274FF0000C04233168019A4E
:103E800021FA03F0C6070FD5D81054F8200003F02C
:103E90000706B600F040400741BF4FF0010CC3F1E8
:103EA000200007FA00F0024301330C2BE8D1BCF1EB
:103EB000000F00D001924FF0000C019A3F4F21FA01
:103EC00003F0C6070FD5D81054F8200003F00706FA
:103ED000B600F040400706D54FF0010C58100638E8
:103EE00057F82000024302331C2BE8D1BCF1000F2D
:103EF00000D00192CA00E06805D5430342BF029B8F
:103F000043F00C0302938F0005D5460242BF029B8B
:103F100043F00A030293042203924A07236803D55D
:103F20005B0544BF0023039340F23F124FF0000EA5
:103F30000D234FF0010C049221FA03F6F70711D577
:103F4000DE1054F8266003F00707BF00FE40F607B6
:103F500008D54FF0010EA3F10D0676080CFA06F60F
:103F600022EA06020233192BE6D1BEF1000F00D07F
:103F700004920F0105D5C60442BF049B23F480734D
:103F800004934C0005D5420142BF059B43F08003DA
:103F90000593002905DA430042BF059B43F0400327
:103FA0000593284601A9DCF073F856E711F80308D9
:103FB0006275050827F803087BF80308987505085B
:103FC00070B530B94FF49671344B354A354837F0F7
:103FD000F7FE8268D5B2C2F30723C2F342102C4623
:103FE00002F01F0251B3642D19D12F4D696921F0E0
:103FF0000101002B18BF41F00101696110212B4B19
:10400000C3F88C1101239340284A42F820302046FF
:1040100004F060FC204604F049FB002070BD652DD3
:10402000F0D11E1E18BF01261F4D696921F0020341
:1040300043EA46036B6120211C4BE1E7642D1DD14F
:10404000194D696921F00101002B08BF41F0010100
:1040500069611021154BC3F88C1101239340134A59
:10406000203042F82030BFF34F8FBFF36F8F2046D0
:1040700004F030FC204604F0A1FCCEE7652DECD125
:10408000B3FA83F3084D5B09696921F0020141EA43
:1040900043036B612021054BDDE700BFAFF503084B
:1040A0007B75050827F803080010034000E100E0D5
:1040B00038B504460D4601B9FEE700B9FEE7142203
:1040C000002138F0FBFE2B78012B237006D16968A4
:1040D00004F10C00BDE8384000F08AB843F22150EA
:1040E00038BD08B500B9FEE7436853B9836843B9E2
:1040F0000378012B01D0002008BD0C3000F082F8BD
:10410000F9E743F22250F7E738B50D46044600B907
:10411000FEE701B9FEE7EFF3108272B68368013360
:10412000836082F3108804220021284638F0C6FEFE
:1041300000202C6038BD08B500B9FEE7036803B95C
:10414000FEE7EFF3108172B69A6812B19A68013AED
:104150009A6081F310880422002138F0AFFE00201D
:1041600008BDF8B50D46064600B9FEE701B9FEE701
:10417000EFF3108772B6446854B9416004222146B7
:10418000284638F09BFE20462E6087F31088F8BD45
:1041900043F22250F9E710B500B9FEE7036803B90E
:1041A000FEE75A688242FAD1EFF3108272B6002419
:1041B0005C6082F310880422214638F07FFE20469E
:1041C00010BD10B400B9FEE701B9FEE702B9FEE781
:1041D000006800B9FEE70378012B04D15DF8044BB9
:1041E0000C3000F016B843F221505DF8044B7047D4
:1041F00008B501B9FEE700B9FEE700F015F800B117
:10420000FEE708BD08B500B9FEE700F077F800202A
:1042100008BD10B400B9FEE701B9FEE702B9FEE738
:104220005DF8044B00F084B870B50C46054688B0C4
:1042300030B940F217112A4B2A4A2B4837F0C0FDFB
:1042400021B94FF48C71294B264AF6E78B7B042B5E
:1042500004D940F21911264B224AEEE7254E56F8B2
:10426000233023B94FF48D71234B1E4AE5E768468E
:1042700003F058F963680093A38913B101238DF803
:104280000C30237A022B02D0032B18BF00238DF8A9
:104290000430637A69465A1E534253418DF8053003
:1042A000A37A2268003B18BF01238DF80830E37A17
:1042B000003B18BF01238DF8093000238DF80D3025
:1042C0008DF80E30A37B56F8230003F0D1F918B90E
:1042D000A37B2B7008B070BD42F6AF70FAE700BF49
:1042E00055FC03083076050891F80308A7FC03087D
:1042F000D2F803084476050819F9030808B530B95F
:1043000040F27311064B074A074837F059FD02780F
:10431000064B53F8220003F0DFF8002008BD00BF71
:1043200055FC03082176050891F803084476050832
:1043300010B530B940F295110C4B0D4A0D4837F0CD
:104340003FFD21B94FF4CB710B4B094AF6E722B977
:1043500040F29711094B064AF0E7094B007853F8F1
:10436000200003F037FA002010BD00BF55FC030801
:104370000C76050891F8030809250408EE53050892
:10438000447605080123034A00F01F008340936030
:10439000704700BF00E100E00123054A00F01F0064
:1043A0008340C2F88830BFF34F8FBFF36F8F7047E1
:1043B00000E100E0044A054B002808BF1346DA6814
:1043C0000A43DA60704700BF20F83F4104F83F44D9
:1043D000D0E903239A4210B511D003F01F0400EB7B
:1043E0008402516903F00042631C03F01F039C42E6
:1043F00028BF02F1004213430361084610BD0020AC
:10440000FCE7034653F8B40F984201D100207047EF
:1044100082688A42FBD00068F6E700002DE9F0418F
:104420000C4600218AB0109E0546082E1746984675
:10443000009106D94FF4DE713C4B3D4A3D4837F0C0
:10444000BFFC242201A838F039FD3B4B8DF8044015
:104450001B788DF805708DF80630082C1CD8DFE825
:1044600004F005131B1B521B581B0A0047F6D072A1
:10447000FA40D30710D54146B20002A8DBF098FC01
:10448000F3B28DF8073007E02B79002B37D00123EA
:104490008DF80730AB6802932978284B284A002909
:1044A00018BF13469E6816F00206FBD16846DBF083
:1044B0007BFB2B78224A002B224B234C18BF1C4637
:1044C0001E4B18BF134624229B6801A9C3F3034364
:1044D00002FB03449DF80720204692000432DBF0E3
:1044E00067FC21463246287803F096FF0446BFF366
:1044F0004F8F0098DBF088FB003C18BF012420465A
:104500000AB0BDE8F08101228DF80720CDF80880BF
:10451000C2E7EA7805F19401920002A8DBF048FCBA
:10452000EB788DF807300023EB70B5E73EF9030810
:104530001D77050859F90308B2E5002020F83F412E
:1045400004F83F4448023C444802384130B5002555
:10455000044685B003A80395DBF026FB2B46022218
:10456000294620460095FFF759FF18B9054A1378E8
:1045700001331370BFF34F8F0398DBF045FB05B099
:1045800030BD00BFB2E5002037B50023044601A8C6
:1045900001930D46DBF008FB2378012BD4E92F3281
:1045A0001CD15A4001D5110711D003F00F0104EBC3
:1045B0008102C2F8C4504A1C03F0004302F00F020B
:1045C000914228BF03F100431343C4F8BC30BFF34A
:1045D0004F8F0198DBF018FB03B030BD5A4001D576
:1045E0005207F4D003F0070104EB8102C2F8C45073
:1045F0004A1C03F0004302F00702E1E7D0E903326E
:104600005A4010B501D5D2060FD003F01F0400EBBD
:1046100084025161621C02F01F0203F000439442C5
:1046200028BF03F100431343C36010BD012808B540
:1046300006D940F29D11074B074A084837F0C0FBE6
:104640004FF49472064B02FB00335878023818BFBF
:10465000012008BD9FF903083A77050859F90308B6
:10466000BCE500202DE9F0414FF0000886B005467A
:1046700000780F461646CDF80C80FFF7D7FF0128CB
:10468000044617D003A8DBF08FFA02230C22009314
:104690004146284604ABCDE90476FFF7BFFE044649
:1046A00060B9074A137801331370BFF34F8F039833
:1046B000DBF0AAFA204606B0BDE8F0810124F4E759
:1046C000B2E500202DE9FF414FF0000805460078D3
:1046D0000E46CDF80C80FFF7A9FF0128044615D03F
:1046E000012703A8DBF060FA33460D224146284635
:1046F0000097FFF793FE044660B9074A13783B44DE
:104700001370BFF34F8F0398DBF07EFA204604B09E
:10471000BDE8F0813C46F4E7B2E500204FF4947226
:10472000034B02FB00300023C0E90333704700BF96
:10473000BCE500202DE9FF474FF0000901280546A0
:104740008A461646CDF80C9006D940F2F9211E4B48
:104750001E4A1F4837F034FB4FF494734343DFF88D
:10476000788018F8030008EB0307FFF75FFF0128C4
:10477000044621D03B792BB326B332465146B86864
:10478000DBF016FB03A8DBF00FFA684200F494702C
:104790004B464A460121CDF800904044FFF73EFECB
:1047A000044668B90B4A3871137801331370BFF3AC
:1047B0004F8F0398DBF028FA204604B0BDE8F0875D
:1047C0000124F4E70124F7E79FF903080A770508B5
:1047D00059F90308B2E50020BCE500202DE9FF41AE
:1047E0004FF00008012804460F461546CDF80C800E
:1047F00006D940F22131204B204A214837F0E0FA17
:104800004FF4947343431F4EF05CFFF70FFF0128F2
:1048100004D10125284604B0BDE8F081644204F4C7
:10482000947434442046FFF7D3FD06460028F0D0A8
:10483000002DEED0394601272A46DBF0B9FA03A84D
:10484000DBF0B2F933464246042120460097FFF7D9
:10485000E5FD054648B90C4A13783B441370BFF395
:104860004F8F0398DBF0D0F9D4E731462046FFF7AD
:10487000C5FE3D46F3E700BF9FF90308F87605083B
:1048800059F90308BCE50020B2E5002001282DE914
:10489000F0470446884691469A4606D94FF45B7124
:1048A000194B1A4A1A4837F08BFA21B940F26D3188
:1048B000184B164AF6E722B940F26E31164B134AEE
:1048C000F0E74FF49475154E05FB0065EB78072B68
:1048D00002D90120BDE8F087404200F494703044D2
:1048E000FFF776FD07460028F3D04A464146D047F9
:1048F0004A22EB78002002FB0434013306EB8406E5
:10490000C6F89470EB70E5E79FF90308DE760508BA
:1049100059F90308D3F90308E1F90308BCE50020BD
:104920002DE9FF414FF0000801280546CDF80C8025
:1049300006D94FF46371184B184A194837F040FAFA
:104940004FF494724243174FB85CBE18FFF76EFEE7
:104950000128044619D003A8DBF026F9684200F4C8
:104960009470434642460621CDF800803844FFF754
:1049700055FD044668B90C4AF07013780133137082
:10498000BFF34F8F0398DBF03FF9204604B0BDE83A
:10499000F0810124F4E700BF9FF90308C7760508FA
:1049A00059F90308BCE50020B2E500202DE9FF47D6
:1049B00000230128039306D940F2DA312B4B2C4A0D
:1049C0002C4837F0FDF92C4C404200F4947000EB79
:1049D000040800F19407DFF8A490903027440444C1
:1049E000A24600254046FFF7F3FC064608B3013512
:1049F000082D4AF8040FF5D103A8DBF0D5F83B46A3
:104A00000922002140460095FFF708FD30B1BFF3B1
:104A10004F8F0398DBF0F8F801200DE099F8003093
:104A2000013389F80030BFF34F8F0398DBF0ECF8C7
:104A3000D6E7EBB21BB9002004B0BDE8F08703A8AD
:104A4000DBF0B2F83B460922314640460095FFF7BD
:104A5000E5FC0028DBD1094A137801331370BFF35A
:104A60004F8F0398DBF0D0F8E5E700BFBFF90308EC
:104A7000B176050859F90308BCE50020B2E500202D
:104A80002DE9F04F0128054699B006D940F2AA4118
:104A9000B94BBA4ABA4837F093F94FF00009B94C0C
:104AA000C0F1000808F4947808EB04064FF49473FE
:104AB00003FB0543DFF8E4A2DFF8DCB2DFF8E4E251
:104AC000DFF8DCC21878002814BF52465A469768AF
:104AD00017F0080747D00121FFF76CFC002814BF2E
:104AE0001A23082301FA03F1A74BA84AC3F8881137
:104AF00003F1C84303F56D1303F5916308BF134633
:104B00001A6842F001021A60B9F1000F1DD04FF48B
:104B1000947300276B43E05C0597FFF787FD01283E
:104B200013D005A8DBF040F83B4603223946304657
:104B30000097FFF773FC18B9954A13780133137087
:104B4000BFF34F8F0598DBF05FF84FF494735D432C
:104B5000635D002B14BF5A204820FFF713FC002090
:104B600019B0BDE8F08F894A8A49002808BF11466C
:104B70000A6822F001020A601A78002A14BF7146FE
:104B80006146496800299DD08348844B002A08BFAC
:104B900003469B68242213F0010F06A818BF4FF0AC
:104BA0000109DBF005F99DF818A05FFA8AFABAF15D
:104BB000080F3FF67BAF01A353F82AF0E14B000842
:104BC000AD4A0008D94D0008674E0008AD4A0008FC
:104BD000D14E0008AD4A0008D14E0008354F0008FC
:104BE0009DF81B30002305939DF8193005A85FFA46
:104BF00083FBDAF0D9FF0BF1FF330C2B1BD8DFE876
:104C000013F02E003D000D001A005F0044001A0052
:104C10001A0059001A008400A200E6004FF49473B1
:104C20006B435F4AE15C5F4B002908BF1346DA68BB
:104C300022F40032DA60BFF34F8F0598DAF0E4FF18
:104C40004FF4947303FB0543D3F80431002B00F0B9
:104C500003819DF81B1006A898478246FCE0304669
:104C6000FFF774FC4FF494736B43E218E35C304637
:104C7000012B04BF02235370FFF768FC4FF49473B9
:104C800003FB054302225A70D5E74FF4947303FBEC
:104C90000543079A9A6001221A715A78022AF1D1C3
:104CA000C9E718AA02EB8303304653F8441CFFF708
:104CB000A5FC01379DF81B20FBB29A42F1D8BAE758
:104CC0004FF494774FF0000B6F430121E05DE3193F
:104CD00083F801B00393FFF76DFB0221FFF76AFB36
:104CE000584514BF5A204820FFF756FBE05D03F0FB
:104CF00091FBE05D2C4A2D49039B584508BF0A46AD
:104D0000C3E903BBC2F800B095E730460799FFF747
:104D100078FB024688B10127079947743A46304626
:104D2000FFF7A0FC4FF4947382466B43E15C07FAF3
:104D300001F11F48DBF0C4F87DE730460799FFF723
:104D400091FC824677E74FF4947351464FF0010C83
:104D500003FB054308F1B402D3F8B4302244934274
:104D600028D100293FF467AF4FF4947301216B43BE
:104D7000E35C9940DDE700BF9FF90308A2760508D0
:104D800059F90308BCE5002000E100E08C2438411B
:104D9000B2E5002088253C4400F83F4118F83F4424
:104DA00020F83F4104F83F4404003C4404003841EB
:104DB0007CE500200798DF68874204D1089820B17D
:104DC000012183F811C01B68C9E75874FBE730461E
:104DD0000799FFF7D9FB2EE74FF4947303FB0543C4
:104DE000D3F80C314BB19DF81B1006A8984720B1A1
:104DF00040F2E1415A4B5B4A4CE64FF494734FF05A
:104E0000000A6B43E05CCDF814A0E718FFF70EFC36
:104E1000012805D1387140F20F51514B514A39E602
:104E2000012705A8DAF0C0FE514608223046009757
:104E300007ABFFF7F3FA824698B94B4A13783B4425
:104E40001370BFF34F8F0598DAF0DEFE4FF49473C2
:104E5000012203FB05431A71BAF1000F3FF426AE9D
:104E6000D9E7BA46EDE74FF4947303FB0543D3F853
:104E700010314BB19DF81B1006A8984720B140F2A5
:104E8000EB41374B374A05E64FF494734FF0000A75
:104E90006B43E05CCDF814A0FFF7C8FB0128BAD043
:104EA000012705A8DAF080FE514607223046009718
:104EB00007ABFFF7B3FA8246002838D12A4A1378A5
:104EC0003B441370BFF34F8F0598DAF09DFEC3E7A4
:104ED000242206A90FA8DAF06BFF4FF4947303FBAA
:104EE0000543D3F818311BB19DF81B1006A898474D
:104EF0004FF494734FF0000A6B43E05CCDF814A0BC
:104F0000FFF794FB9DF83F700128FFB283D005A8FE
:104F1000DAF04AFE51460A223046009710ABFFF7FE
:104F20007DFA824618B9104A13780133C9E74FF069
:104F3000010AC7E730460899FFF763FA20B93046FF
:104F40000BA9FFF7BFFB88E64369002BF7D0BDF83C
:104F500028200B99806998470028F0D05BE700BFB4
:104F6000EEF90308A2760508B2E500200023F0B5AB
:104F70000B4F85B00B4E039303AD4FF0FF33002270
:104F8000032138460095DAF087FE039B34781BB97D
:104F9000002CF2D105B0F0BD0120FFF771FDF7E75D
:104FA00084E50020A574050800232DE9F04F0128B1
:104FB00085B00446029306D940F2DA51704B714A2B
:104FC000714836F0FDFE4FF4947545436F4EDFF89F
:104FD000F4A17055474202A8DAF0E6FD16F8058004
:104FE0009AF8005007F4947725FA08F515F00105B2
:104FF00007EB06095AD1B8F1000F40F09780DFF8AF
:10500000C88198F80030DA070ED42A466049614812
:10501000DAF03AFE01216048DAF066FE98F80030D6
:1050200043F0010388F80030204603F023FA80465D
:10503000002840F0A28020460121FFF7BBF9002C98
:1050400014BF5A204820402200F01A039940534BC5
:10505000C3F88811034483F80023FFF793F94FF452
:10506000947303FB0463C3E90388C3E92F8883F8BF
:105070000380002C75D1DFF8548141464846013544
:10508000FFF782FA082D08F50078F6D14FF49473F3
:105090006343B437F2183744C2E92D77F25C012339
:1050A00093409AF8002013438AF800304FF4947329
:1050B0006343F2185278002A2FD1F15C0392384BE7
:1050C000384A394D002908BF13461D601A68AA42A4
:1050D000FCD103A8DAF068FD4FF494735C433719F0
:1050E0007B78ABB9305D314A3149002808BF0A46A8
:1050F0001268AA420CD10122194648460093FFF7D4
:105100008DF928B901232B4A7B7013780133137072
:10511000BFF34F8F0398DAF077FDBFF34F8F0298FC
:10512000DAF072FD002005B0BDE8F08FB8F1010F94
:105130007FF47AAFDFF890B09BF800309B073FF523
:1051400073AF2A461C491D48DAF09EFD41461C48B3
:10515000DAF0CAFD9BF8003043F002038BF8003010
:1051600062E7DFF86C80414648460135FFF70CFAEC
:10517000102D08F58478F6D188E70120D3E700BF29
:10518000BFF903089676050859F90308BCE5002025
:105190006C770508A0E500208CE5002000E100E028
:1051A00004003C440400384189EFCDAB00003C448E
:1051B00000003841B2E500204C77050894E5002056
:1051C00084E50020B1E50020B0E5002088043841E6
:1051D00008153C442DE9FF410023012804460E46F2
:1051E000029306D940F22F614F4B504A504836F097
:1051F000E7FD02A8DAF0D8FC16F001084D4F32D1D5
:105200002046FFF7D3FB4FF494736343F85CCDF86B
:105210000C80FFF70BFA01281AD003A8DAF0C4FCBF
:10522000604200F49470434605224146CDF8008068
:105230003844FFF7F3F8054698B93F4A137801332D
:105240001370BFF34F8F0398DAF0DEFC012D0AD103
:10525000BFF34F8F0298DAF0D7FC012004B0BDE80D
:10526000F0810125EDE74FF494735C430121385D33
:10527000FFF7A0F80221FFF79DF8002814BF5A207D
:105280004820FFF789F8385D03F0C4F80023395D42
:105290002A482B4A3D19994214BF04461446012757
:1052A000DFF8B4C023609CF800408F4024EA070474
:1052B000C5E903336B708CF80040AB60EB70AB80DA
:1052C000B8F1000F07D1043A0438994218BF0246DA
:1052D0001368002BFCD1B0070ED4A1B9194C237868
:1052E000DA0709D51848DAF037FE1848DAF048FC32
:1052F000237823F001032370BFF34F8F0298DAF075
:1053000083FC0020AAE70129F6D10E4C23789B07E5
:10531000F2D50F48DAF020FE0E48DAF031FC23789F
:1053200023F00203E7E700BFBFF90308887605080A
:1053300059F90308BCE50020B2E5002004003C4414
:1053400004003841B0E500208CE50020A0E50020F5
:1053500084E5002094E50020B1E50020012808B58F
:1053600006D940F232710B4B0B4A0C4836F028FD3F
:10537000082A04D940F23371094B074AF5E74A235A
:1053800003FB0022074B002003EB8203C3F8041148
:1053900008BD00BF9FF903087176050859F9030895
:1053A00016FA0308BCE50020C30701464CBF0248BB
:1053B0000248DAF085BD00BF8CE5002084E50020BE
:1053C00008B54820FEF7E8FF094B9A68120705D494
:1053D000BDE8084001210748DAF072BDDA6A4820CA
:1053E00042F00102DA62BDE80840FEF7CBBF00BF21
:1053F00000F83F418CE5002010B50C4C5A20FEF718
:10540000CBFF236A1B0704D4BDE810400220FFF73E
:10541000CBBF074B5B6803B1984723695A2043F021
:1054200001032361BDE81040FEF7ACBF00F83F4424
:10543000B4E50020012808B506D94FF4FF61084BF8
:10544000084A094836F0BCFC4FF49472074B02FB43
:105450000033D3E90303C31A5842584108BD00BFC3
:105460009FF903085876050859F90308BCE50020A0
:10547000064808B503683BB9DAF0BEFC43F2DD73B9
:10548000C31A5842584108BD0020FCE7ACE5002093
:1054900010B5044C236823B12046DAF0E9FB002361
:1054A000236010BDACE50020064808B503683BB199
:1054B0004FF0FF31DAF018FE003818BF012008BDA8
:1054C0001846FCE7ACE50020054808B503682BB199
:1054D000DAF04EFD003818BF012008BD1846FCE781
:1054E000ACE500200023F0B50D4F85B00D4E0393C1
:1054F00003ADFFF7E9FF4FF0FF33002203213846E9
:105500000095DAF0C9FB039B34781BB9002CF0D16D
:1055100005B0F0BDFFF7C8FF0020FFF7B1FAF5E7CF
:105520008CE50020A5740508084A92F8D93003F0EC
:105530000F03052B08D092F8D930054803F00F036C
:105540000A2B18BF00207047024870470020004512
:105550003E07E102236E8C03354A08B5D2F8343495
:1055600003F00303022B36D0032B5CD0012B5DD05C
:10557000D2F8303403F00303022B21D0032B27D0C1
:10558000012B19D0D2F868314BB92A4B2A48D3F8ED
:10559000803413F0200F294B08BF184602E000208A
:1055A000D2F86831224BD3F80034DBB20133B0FBC0
:1055B000F3F0234B186008BDFFF7B6FF8008F1E752
:1055C0001C4B2048D3F8803413F0200F1E4BE3E728
:1055D000FFF7AAFFE6E71D4B164AD3F88830D2F84A
:1055E0008014C3F34723890610D5A3F14B01152975
:1055F0000CD8114858430C22B0FBF2F00C4BD3F8F6
:105600004032DBB20133B0FBF3F0CBE7D2F88004D9
:1056100010F0200005D1A3F14E02162AEBD807485E
:10562000E8E70020E7E74FF40040BBE70848B9E7A8
:105630000010004000080045005A620200F04902D4
:10564000180A002040420F0000A60E000030004063
:105650000024F4007047000008B51E4BD3F88820E2
:1056600042F47002C3F88820D3F8882042F00F0279
:10567000C3F88820D3F88C2042F4406242F0030241
:10568000C3F88C20144B03F06843B3F1006F1DD1B5
:10569000124BDA69D2B94FF0A062C3F80028D3F8F0
:1056A000002842F00042C3F80028D3F80028002A5E
:1056B000FBDB0322C3F80028094A5A6100229A61E1
:1056C0000122DA61BFF36F8FBFF34F8FFFF7C2FF85
:1056D00008BD00BF00ED00E0595500080030034050
:1056E00000FCFF07044B0548D3F8803413F0200F6B
:1056F000034B08BF184670470008004540420F00A2
:1057000000A60E0010B101380028FCD1704700003F
:10571000074B084A1B6803F5742303F23F23B3FBCE
:10572000F2F3434303200233B3FBF0F0FFF7EABF89
:10573000180A002040420F00184B30B5D3F88034CF
:1057400044F6241103F02003002B0BBF1324142470
:105750005420512018BF0021114B124A5D692A4084
:1057600042EAC42242F027525A619A6922F47E62C8
:1057700042F040029A61DA6822F01E0242F004020E
:10578000DA601A696FF31C5242EA00521A61DA6A4F
:105790006FF3DB1242EAC112DA6230BD0008004545
:1057A00000300040FF070F80054A9368D90405D4F4
:1057B00043F4805332209360FFF7AABF704700BFC5
:1057C00000300040034A9368D90444BF23F4805357
:1057D00093607047003000400C4B0D495A6951F8F6
:1057E000201061F386120B495A611A6951F8201092
:1057F00061F353021A6108491A6A51F82010C2F382
:10580000120242EAC1421A62704700BF00300040F3
:10581000447805089C78050870780508094A0A4903
:10582000D36B51F8201061F35963D363074B0849D8
:1058300053F8203051F82010C3F3120343EAC14358
:105840009363704700300040447805089C78050851
:105850007078050808B5104BD3F888000F4BC0F3DB
:105860004720D3F88024920606D5A0F14B02152AD2
:1058700002D80B4B584308BDD3F880349B0605D49F
:10588000A0F14E03162B01D8064BF3E7C321064BBC
:10589000064A074836F094FA0030004000080045F8
:1058A000005A620200F0490231F703081278050835
:1058B00054FA030808B50B4A92F8D93003F00F03E5
:1058C000052B0BD092F8D93003F00F030A2B07D029
:1058D0008C21054B054A064836F072FA054808BD8A
:1058E0000548FCE70020004531F703082878050843
:1058F00054FA0308236E8C033E07E10208B5FFF754
:10590000A9FF0C23B0FBF3F008BD000008B5FFF7BA
:10591000F5FF044BD3F84032DBB20133B0FBF3F0B8
:1059200008BD00BF00100040264B10B5984208D1BA
:10593000254B9A6A22F004029A629A6A9207FCD571
:1059400010BD10F4803FC2B20ED0BDE8104001215E
:105950001E4801FA02F2D0F8903023EA0203C0F8A0
:1059600090300420FFF7CEBEC0F3072101230529A4
:1059700021D8DFE801F0030D1115191D9340144AD9
:105980001364B0F5887F02BF1F22104B1A64D7E75B
:1059900093400F4A5364F4E793400D4A9364CFE772
:1059A00093400C4A1364CBE793400A4A5364C7E719
:1059B0009340084AF2E74FF49071074B074A0848B2
:1059C00036F0FEF9200001000010034000300040D6
:1059D000001000400010024031F70308007805086D
:1059E00054FA0308224B10B5984205D1214A936A14
:1059F00043F00403936210BD10F4803FC2B208D09C
:105A000001231D499340D1F890000343C1F8903021
:105A1000F1E7C0F307210123052921D8DFE801F0D0
:105A2000030D1115191D9340144A1367B0F5887FB3
:105A300002BF0022104B1A64DDE793400F4A536700
:105A4000F4E793400D4A9367D5E793400C4A1367F8
:105A5000D1E793400A4A5367CDE79340084AF2E7FB
:105A60004FF4AB71074B084A084836F0A9F900BF5C
:105A700020000100001003400030004000100040F2
:105A80000010024031F70308ED77050854FA0308C7
:105A9000C2070AD540F6FC73034003F1804303F5C7
:105AA0004433C0F301301860704783070DD5184B9D
:105AB000C0F30212C3F86027C0F30222C0F3023021
:105AC000C3F86427C3F86C07704740F6FC720240C5
:105AD00010F4004F02F180430CBF03F5805303F52F
:105AE0000433002AE0D0C0F302321A6040F6FC72A0
:105AF00002EA1042002802F18043B4BF03F50433E8
:105B000003F58053002ACFD0C0F30270CBE700BF6B
:105B10000010024040F6FC73034003F1804310F490
:105B2000004F14BF03F5043303F580531A6842F0A5
:105B300000521A6021B91A6842F080421A60704718
:105B4000013919601A68002AFCDB7047084B0949C3
:105B50001A6A0123D20C51F8040F824203D1064A7B
:105B600052F82300704701330B2BF4D1002070470B
:105B70000030004070780508C878050808B5FFF7C0
:105B8000E5FF044BD3F84032DBB20133B0FBF3F056
:105B900008BD00BF00100240204A08B5D2F83434D6
:105BA00003F00303022B2DD0032B2FD0012B30D079
:105BB000D2F8303403F00303022B1BD0032B1DD08B
:105BC000012B13D0D2F868314BB9154B1548D3F8D7
:105BD000803413F0200F144B08BF184608BDD2F8CC
:105BE0006831012B17D1114B1868F7E7FFF762FEF8
:105BF0008008F3E7BDE80840FFF774BDBDE8084042
:105C0000FFF758BEBDE80840FFF780BE4FF40040E4
:105C1000E4E70748E2E70020E0E700BF00100040AB
:105C200000080045005A620200F0490210E8002016
:105C30000024F400032870B515D8400100F180401D
:105C400000F50430D0F80035D0F80455D0F80445FC
:105C500003F00703C5F30725E4B2032B32D8DFE8CE
:105C600003F02124172E0E280BD1174AD2F8C03684
:105C7000D2F8C45603F00703D2F8C446C5F307258B
:105C8000EAE74FF42471114B114A124836F098F8A4
:105C90001148611C621900230132A1FB0001FCF7CD
:105CA0007FFA70BDFFF778FFF3E7074BD3F8FC6688
:105CB000FFF72CFEF6B20136B0FBF6F0E9E7FFF78E
:105CC000F9FDE6E70020E4E70010024031F70308A1
:105CD000DB77050854FA03080024F40008B50378BC
:105CE0000E2B06D940F2B621174B184A184836F049
:105CF00067F88278FF2A04D040F2B721154B134A87
:105D0000F4E7032B0ED85B01427803F1804303F5DF
:105D10000433C3F80025C278120242F0FF02C3F830
:105D2000042508BD0E2B0AD143780B4AC2F8C036B1
:105D3000C3781B0243F0FF03C2F8C436F1E740F218
:105D4000C521064B014AD1E793FA0308C977050834
:105D500054FA03089CFA03080010024031F70308C4
:105D6000032808B5154B0AD803EB4013D3F80835C0
:105D7000042B21D8DFE803F00F1115191C000E28A1
:105D800002D1D3F8C836F3E740F285310C4B0D4A07
:105D90000D4836F015F80D4808BDBDE80840FFF77E
:105DA00089BDBDE80840FFF7E9BE094B1868F3E775
:105DB000BDE80840FFF73EBF0020EDE700100240BD
:105DC00031F70308B077050854FA03080024F400FB
:105DD0000CE8002008B50B4BD3F8902042F00302EA
:105DE000C3F89020D3F8882022F02002C3F888203E
:105DF000FFF7B2FB0120FFF78BFCBDE8084002482B
:105E0000FFF7F0BD003000401C00010038B52D4BFD
:105E10000546D3F888300C46980601D5FFF7DAFF1F
:105E20007422294B83F8E820A3F5C053D3F88024CB
:105E300012F0200F254A29D0254803F11663854228
:105E400038BF054603F54743954294BF5B199B183D
:105E5000204AB3FBF2F302FB03004B33194AE4017F
:105E6000D2F8881004F4C0746FF3D0110C4344EAE4
:105E70004324C2F88840D2F8883043F02003C2F8A7
:105E80008830D2F888305B06FBD538BDD3F8803433
:105E900099060FD41048114B854238BF05469542EC
:105EA00094BF5B199B180E4AB3FBF2F302FB03008D
:105EB0004E33D3E740F2B4410A4B0B4A0B4835F05E
:105EC0007FFF00BF003000400020004500C0E1E43B
:105ED000005ED0B2005A6202002087B200D89D4E08
:105EE00000F0490231F703089C77050854FA0308CB
:105EF00008B50B4BD3F8902042F00C02C3F8902069
:105F0000D3F8882022F00802C3F88820FFF724FB8A
:105F10000120FFF7FDFBBDE808400248FFF762BD26
:105F2000003000401D00010038B50F4C0546D4F884
:105F300088301A0701D5FFF7DBFF74220B4B83F87B
:105F4000A820D4F88830084A65F35243C4F8883052
:105F5000D4F8883043F00803C4F88830D2F8883089
:105F6000DB06FBD538BD00BF0030004000200045F7
:105F700008B5FFF7F1FA094B0120D3F8902042F061
:105F8000F002C3F89020D3F8882022F00102C3F871
:105F90008820BDE80840FFF7BBBB00BF00300040D1
:105FA00038B50D4C0546D4F88830DA0701D5FFF72F
:105FB000DFFF0A4B75B9052283F8D920D4F8883061
:105FC000054A43F00103C4F88830D2F888309B07B3
:105FD000FBD538BD0A22EFE7003000400020004525
:105FE00070B516460546364C18B1636943F0100388
:105FF000636119B1E36B43F08073E363E36A0320E9
:1060000043F04003E362FFF783FBE36A022023F0DF
:106010004003E362FFF77CFBE36A052023F0010302
:10602000E362FFF775FB1EB1636943F4803363617C
:106030000520FFF76DFB25B1214AD36A23F0020347
:10604000D36231B11E4AD2F8C03023F00103C2F846
:10605000C0300220FFF75CFB25B1194A136943F0F9
:106060000103136121B1164AD36B43F08063D363FC
:106070000220FFF74DFB25B1114A136923F00103FC
:10608000136121B10E4AD36B23F08063D3630C20DC
:10609000FFF73EFB06B970BD3D24094904E0013C11
:1060A00005D00A20FFF734FB8B6A9B01F7D50A2045
:1060B000FFF72EFB4B6923F480334B61EBE700BF06
:1060C0000030004040B10B4BDA6A42F00202DA6263
:1060D0005A6922F010025A6151B1064BD3F8C02020
:1060E00042F00102C3F8C020DA6B22F08072DA635A
:1060F000704700BF00300040012110B50C4C08462D
:10610000FFF7E0FFE36A0B4843F00403E362E36A4E
:106110000B43E362636923F020036361FFF762FCD2
:1061200063685B0703D4BDE81040FFF74BBB10BDAD
:10613000003000401E00010010B5044630B940F2A6
:106140000B61174B174A184835F03AFE174B5B693D
:106150009B0601D5FFF7D0FFFFF7FEF9FFF724FB01
:10616000FFF7EAFA207808B1FFF736FB607808B14C
:10617000FFF754FB0D490F204B6943F020034B619F
:10618000FFF7C6FACB6A0F2023F00403CB6201218C
:10619000FFF7BEFAA2780846BDE81040FFF720BF1F
:1061A000B4FA03088C77050854FA0308003000405D
:1061B00008B5B0B14FF0FF33A0FB01018342094B9A
:1061C0008B4105D2D521084B084A094835F0F8FD26
:1061D0000023084AFBF7E4FF0046A0F10100002875
:1061E000FBD108BD3F420F003AFB0308F4780508D5
:1061F000F6FA030800093D0000F088BC00F0B4BACC
:1062000010B101380028FCD170470000074B084A44
:106210001B6803F5742303F23F23B3FBF2F34343FC
:1062200003200233B3FBF0F0FFF7EABF180A0020A7
:1062300040420F0008B5144B5B699B0305D54FF036
:106240008043586910F4003017D0104AD2F8143146
:1062500003F00F03012B05D0D2F8143103F00F0324
:10626000022B0BD10A4B1B6800209B695B68984787
:1062700000280CBF01204FF0FF3008BD40F2111084
:1062800002F09AFF034BEEE70010004000100045BB
:1062900014E8002018E8002038B5084C0B46D4F864
:1062A00028443CB12344014623F00060BDE8384057
:1062B000FDF7EAB9D9F07CFD204638BD0040134017
:1062C00008B5102002F02CFF0748D9F001FD47F275
:1062D0002060FFF7DDFB1020FFF784FBBDE80840DE
:1062E000102002F0D7BE00BF0040134030B5D0F8F8
:1062F0002C4205462269A36B3C2AA7B009D1B3F50D
:106300004A7F236102D9012027B030BD626100209D
:10631000FAE79A42F7D19422002101A836F0CEFD87
:10632000D5F8300201A900F0EBFCB0F15A3FEAD1F8
:106330001C4AD5F83002D2F8143104F1180103F0E8
:106340000F03012B05D0D2F8143103F00F03022BF9
:1063500025D1154B1B6801AA1B69DB689847B0F172
:106360005A3FD0D14FF48072236CA260383BDBB22D
:1063700084F8443303F5807323610023D5F8302279
:10638000A16A126863614A4384F85033C4F85433F5
:10639000C4F84033054B6160E2602360B7E7044B0B
:1063A000D8E700BF0010004514E80020A5640008ED
:1063B00018E8002008B50D4B1B69DB0305D54FF02D
:1063C0008043186910F480300ED01020FFF7ACFA2B
:1063D000102002F0F1FE022205481146D9F08CFD92
:1063E0000348D9F0FDFB012008BD00BF00100040AC
:1063F000004013402DE9FF410C46054600211022C4
:10640000684636F05BFD04F07F014B1E022B26D858
:106410006E460327B0468C0004F283144146E01B0D
:1064200002F0E4F80346E0B9013F7A1C08F10408E1
:10643000F4D10146002256F8040B20FA02F4E407D6
:1064400002F1010248BF0133102AF6D101310429BB
:10645000F0D14FF05A302B6004B0BDE8F081024813
:10646000FAE70248F8E700BFF0A55A5AA5A55A5A1C
:10647000094AD2F8143103F00F03012B05D0D2F8EA
:10648000143103F00F03022B04D1044B1B689B69EA
:106490009B681847024BF9E70010004514E80020FC
:1064A00018E800202DE9F84F0746D0E98B40D4F8D2
:1064B000402303689A4280F085809D4A04F11801C8
:1064C000D2F8143103F00F03012B05D0D2F81431A8
:1064D00003F00F03022B64D1964B1B681B691B69E9
:1064E0009847B0F15A3F6DD10026012594F8443306
:1064F000666118332344C4E9D236D4F8403384F8B3
:1065000045532B44C4F84033DFF83092D7F82C427F
:10651000DFF82CA294F84533002B56D094F8508322
:10652000B8F1000F3FD0D4F85C33012B40F0FC8071
:1065300094F868B3BBF1000F58D004F55D78D8F833
:106540000C30022B21D194F88433002B7BD1D4F86A
:106550004C33A268934237D003F110018A4231D301
:10656000D4F848131022194404F56270D9F020FCC5
:10657000012384F88433D4F84C331033C4F84C33FB
:10658000D4F854331033C4F85433D8F80C30022BF9
:1065900059D0032B00F0B68084F86863C4F86C63AC
:1065A00079E0654B99E7D4E9D21301EB030B102294
:1065B000594604F55670D9F0FBFBDBF804301BB1EB
:1065C000012B05D0012500E000252846BDE8F88F05
:1065D00084F85033D4F84C33C4F85483103384F81F
:1065E0006883C4F86C83C4F84C33A1E7D4E9D223A0
:1065F00002EB0308D3585345E4D11022414604F579
:106600005D70D9F0D5FB012384F868331023C4F8FA
:106610006C33D4F84C33C4F870B31033C4F84C3333
:10662000D4F8543384F884B31033C4F8543398F84E
:106630000C30022B01BFD8F808305B4203F00F0387
:10664000C4F870337BE7D7F82C52D5F84C33D5F823
:1066500008C063451ED0D5E9DE02D5F8481303EB28
:10666000020EF445194430D3D9F0A2FB0023D5F82B
:10667000702385F86833C5F86C33D5F87C33134440
:10668000D5F84C231A44C5F84C23D5F854231A44A2
:10669000C5F854230025D8F80C30032B95D0D4F836
:1066A0005423D4F860339A4235D184F85063D4F837
:1066B0004C33A268934230D10025666184F845636B
:1066C000C4F84C63C4F8009024E7ACEB0302D9F0A3
:1066D0006FFBA868D5F84C33D5F87813C21A11446B
:1066E000C5F87813D5F87C13C5F86C230B441B1A36
:1066F000C5F87C33D5F85433C5F84C031344C5F8BA
:106700005433C7E7D7F82C3242F2877583F86863B1
:10671000C3F86C63BFE7CAD954E73FF653AF1033F1
:106720009A42BFF4F7AE4DE7012584F84563F1E6E0
:106730000010004514E8002018E80020A5640008B7
:1067400055AAAA5500F07F00012808B506D102F02D
:106750003BFABDE808400520FFF758BD0238012884
:10676000F7D802F0ADFAF4E700F07F00012808B591
:1067700006D102F069FABDE808400520FFF746BDE2
:1067800002380128F7D802F0DBFAF4E700F07F00C6
:10679000012807D1094AD2F8843143F08043C2F876
:1067A00084317047023801289FBF054AD2F81C3156
:1067B00043F01003C2F81C31704700BF00002441B1
:1067C00000002444D0F82C32D3F88003033818BFDB
:1067D000012070472DE9F74F784B794E0746C6F8F0
:1067E0002C32784BC6F83032D9F04EFC764B1A6911
:1067F000500508D55B69D90705D54FF080431C6962
:1068000014F480640AD00A20FFF78EF84FF48070E9
:10681000FFF78AF80A2002F0CFFC01246B4AD6F871
:106820003002D2F8143103F00F03012B05D0D2F857
:10683000143103F00F03022B67D1654B1B681B69F2
:106840005B689847B0F15A3F82467AD1D6F82C520D
